{
  "_format": "hh-sol-artifact-1",
  "contractName": "NFTMarketplace",
  "sourceName": "contracts/NFTMarket.sol",
  "abi": [
    {
      "inputs": [],
      "stateMutability": "nonpayable",
      "type": "constructor"
    },
    {
      "anonymous": false,
      "inputs": [
        {
          "indexed": true,
          "internalType": "address",
          "name": "owner",
          "type": "address"
        },
        {
          "indexed": true,
          "internalType": "address",
          "name": "approved",
          "type": "address"
        },
        {
          "indexed": true,
          "internalType": "uint256",
          "name": "tokenId",
          "type": "uint256"
        }
      ],
      "name": "Approval",
      "type": "event"
    },
    {
      "anonymous": false,
      "inputs": [
        {
          "indexed": true,
          "internalType": "address",
          "name": "owner",
          "type": "address"
        },
        {
          "indexed": true,
          "internalType": "address",
          "name": "operator",
          "type": "address"
        },
        {
          "indexed": false,
          "internalType": "bool",
          "name": "approved",
          "type": "bool"
        }
      ],
      "name": "ApprovalForAll",
      "type": "event"
    },
    {
      "anonymous": false,
      "inputs": [
        {
          "indexed": true,
          "internalType": "uint256",
          "name": "tokenId",
          "type": "uint256"
        },
        {
          "indexed": false,
          "internalType": "address",
          "name": "seller",
          "type": "address"
        },
        {
          "indexed": false,
          "internalType": "address",
          "name": "owner",
          "type": "address"
        },
        {
          "indexed": false,
          "internalType": "uint256",
          "name": "price",
          "type": "uint256"
        },
        {
          "indexed": false,
          "internalType": "bool",
          "name": "sold",
          "type": "bool"
        }
      ],
      "name": "MarketItemCreated",
      "type": "event"
    },
    {
      "anonymous": false,
      "inputs": [
        {
          "indexed": true,
          "internalType": "address",
          "name": "from",
          "type": "address"
        },
        {
          "indexed": true,
          "internalType": "address",
          "name": "to",
          "type": "address"
        },
        {
          "indexed": true,
          "internalType": "uint256",
          "name": "tokenId",
          "type": "uint256"
        }
      ],
      "name": "Transfer",
      "type": "event"
    },
    {
      "inputs": [
        {
          "internalType": "address",
          "name": "to",
          "type": "address"
        },
        {
          "internalType": "uint256",
          "name": "tokenId",
          "type": "uint256"
        }
      ],
      "name": "approve",
      "outputs": [],
      "stateMutability": "nonpayable",
      "type": "function"
    },
    {
      "inputs": [
        {
          "internalType": "address",
          "name": "owner",
          "type": "address"
        }
      ],
      "name": "balanceOf",
      "outputs": [
        {
          "internalType": "uint256",
          "name": "",
          "type": "uint256"
        }
      ],
      "stateMutability": "view",
      "type": "function"
    },
    {
      "inputs": [
        {
          "internalType": "uint256",
          "name": "tokenId",
          "type": "uint256"
        }
      ],
      "name": "cancelItemListing",
      "outputs": [],
      "stateMutability": "nonpayable",
      "type": "function"
    },
    {
      "inputs": [
        {
          "internalType": "uint256",
          "name": "tokenId",
          "type": "uint256"
        }
      ],
      "name": "createMarketSale",
      "outputs": [],
      "stateMutability": "payable",
      "type": "function"
    },
    {
      "inputs": [
        {
          "internalType": "string",
          "name": "tokenURI",
          "type": "string"
        },
        {
          "internalType": "uint256",
          "name": "price",
          "type": "uint256"
        }
      ],
      "name": "createToken",
      "outputs": [
        {
          "internalType": "uint256",
          "name": "",
          "type": "uint256"
        }
      ],
      "stateMutability": "payable",
      "type": "function"
    },
    {
      "inputs": [],
      "name": "fetchItemsListed",
      "outputs": [
        {
          "components": [
            {
              "internalType": "uint256",
              "name": "tokenId",
              "type": "uint256"
            },
            {
              "internalType": "address payable",
              "name": "seller",
              "type": "address"
            },
            {
              "internalType": "address payable",
              "name": "owner",
              "type": "address"
            },
            {
              "internalType": "uint256",
              "name": "price",
              "type": "uint256"
            },
            {
              "internalType": "bool",
              "name": "sold",
              "type": "bool"
            }
          ],
          "internalType": "struct NFTMarketplace.MarketItem[]",
          "name": "",
          "type": "tuple[]"
        }
      ],
      "stateMutability": "view",
      "type": "function"
    },
    {
      "inputs": [],
      "name": "fetchMarketItems",
      "outputs": [
        {
          "components": [
            {
              "internalType": "uint256",
              "name": "tokenId",
              "type": "uint256"
            },
            {
              "internalType": "address payable",
              "name": "seller",
              "type": "address"
            },
            {
              "internalType": "address payable",
              "name": "owner",
              "type": "address"
            },
            {
              "internalType": "uint256",
              "name": "price",
              "type": "uint256"
            },
            {
              "internalType": "bool",
              "name": "sold",
              "type": "bool"
            }
          ],
          "internalType": "struct NFTMarketplace.MarketItem[]",
          "name": "",
          "type": "tuple[]"
        }
      ],
      "stateMutability": "view",
      "type": "function"
    },
    {
      "inputs": [],
      "name": "fetchMyNFTs",
      "outputs": [
        {
          "components": [
            {
              "internalType": "uint256",
              "name": "tokenId",
              "type": "uint256"
            },
            {
              "internalType": "address payable",
              "name": "seller",
              "type": "address"
            },
            {
              "internalType": "address payable",
              "name": "owner",
              "type": "address"
            },
            {
              "internalType": "uint256",
              "name": "price",
              "type": "uint256"
            },
            {
              "internalType": "bool",
              "name": "sold",
              "type": "bool"
            }
          ],
          "internalType": "struct NFTMarketplace.MarketItem[]",
          "name": "",
          "type": "tuple[]"
        }
      ],
      "stateMutability": "view",
      "type": "function"
    },
    {
      "inputs": [
        {
          "internalType": "uint256",
          "name": "tokenId",
          "type": "uint256"
        }
      ],
      "name": "getApproved",
      "outputs": [
        {
          "internalType": "address",
          "name": "",
          "type": "address"
        }
      ],
      "stateMutability": "view",
      "type": "function"
    },
    {
      "inputs": [],
      "name": "getListingPrice",
      "outputs": [
        {
          "internalType": "uint256",
          "name": "",
          "type": "uint256"
        }
      ],
      "stateMutability": "view",
      "type": "function"
    },
    {
      "inputs": [
        {
          "internalType": "address",
          "name": "owner",
          "type": "address"
        },
        {
          "internalType": "address",
          "name": "operator",
          "type": "address"
        }
      ],
      "name": "isApprovedForAll",
      "outputs": [
        {
          "internalType": "bool",
          "name": "",
          "type": "bool"
        }
      ],
      "stateMutability": "view",
      "type": "function"
    },
    {
      "inputs": [],
      "name": "name",
      "outputs": [
        {
          "internalType": "string",
          "name": "",
          "type": "string"
        }
      ],
      "stateMutability": "view",
      "type": "function"
    },
    {
      "inputs": [
        {
          "internalType": "uint256",
          "name": "tokenId",
          "type": "uint256"
        }
      ],
      "name": "ownerOf",
      "outputs": [
        {
          "internalType": "address",
          "name": "",
          "type": "address"
        }
      ],
      "stateMutability": "view",
      "type": "function"
    },
    {
      "inputs": [
        {
          "internalType": "uint256",
          "name": "tokenId",
          "type": "uint256"
        },
        {
          "internalType": "uint256",
          "name": "price",
          "type": "uint256"
        }
      ],
      "name": "resellToken",
      "outputs": [],
      "stateMutability": "payable",
      "type": "function"
    },
    {
      "inputs": [
        {
          "internalType": "address",
          "name": "from",
          "type": "address"
        },
        {
          "internalType": "address",
          "name": "to",
          "type": "address"
        },
        {
          "internalType": "uint256",
          "name": "tokenId",
          "type": "uint256"
        }
      ],
      "name": "safeTransferFrom",
      "outputs": [],
      "stateMutability": "nonpayable",
      "type": "function"
    },
    {
      "inputs": [
        {
          "internalType": "address",
          "name": "from",
          "type": "address"
        },
        {
          "internalType": "address",
          "name": "to",
          "type": "address"
        },
        {
          "internalType": "uint256",
          "name": "tokenId",
          "type": "uint256"
        },
        {
          "internalType": "bytes",
          "name": "data",
          "type": "bytes"
        }
      ],
      "name": "safeTransferFrom",
      "outputs": [],
      "stateMutability": "nonpayable",
      "type": "function"
    },
    {
      "inputs": [
        {
          "internalType": "address",
          "name": "operator",
          "type": "address"
        },
        {
          "internalType": "bool",
          "name": "approved",
          "type": "bool"
        }
      ],
      "name": "setApprovalForAll",
      "outputs": [],
      "stateMutability": "nonpayable",
      "type": "function"
    },
    {
      "inputs": [
        {
          "internalType": "bytes4",
          "name": "interfaceId",
          "type": "bytes4"
        }
      ],
      "name": "supportsInterface",
      "outputs": [
        {
          "internalType": "bool",
          "name": "",
          "type": "bool"
        }
      ],
      "stateMutability": "view",
      "type": "function"
    },
    {
      "inputs": [],
      "name": "symbol",
      "outputs": [
        {
          "internalType": "string",
          "name": "",
          "type": "string"
        }
      ],
      "stateMutability": "view",
      "type": "function"
    },
    {
      "inputs": [
        {
          "internalType": "uint256",
          "name": "tokenId",
          "type": "uint256"
        }
      ],
      "name": "tokenURI",
      "outputs": [
        {
          "internalType": "string",
          "name": "",
          "type": "string"
        }
      ],
      "stateMutability": "view",
      "type": "function"
    },
    {
      "inputs": [
        {
          "internalType": "address",
          "name": "from",
          "type": "address"
        },
        {
          "internalType": "address",
          "name": "to",
          "type": "address"
        },
        {
          "internalType": "uint256",
          "name": "tokenId",
          "type": "uint256"
        }
      ],
      "name": "transferFrom",
      "outputs": [],
      "stateMutability": "nonpayable",
      "type": "function"
    },
    {
      "inputs": [
        {
          "internalType": "uint256",
          "name": "_listingPrice",
          "type": "uint256"
        }
      ],
      "name": "updateListingPrice",
      "outputs": [],
      "stateMutability": "payable",
      "type": "function"
    }
  ],
  "bytecode": "0x608060405266038d7ea4c680006009553480156200001c57600080fd5b506040518060400160405280601081526020017f4d657461766572736520546f6b656e73000000000000000000000000000000008152506040518060400160405280600481526020017f4d4554410000000000000000000000000000000000000000000000000000000081525081600090816200009a919062000370565b508060019081620000ac919062000370565b50505033600a60006101000a81548173ffffffffffffffffffffffffffffffffffffffff021916908373ffffffffffffffffffffffffffffffffffffffff16021790555062000457565b600081519050919050565b7f4e487b7100000000000000000000000000000000000000000000000000000000600052604160045260246000fd5b7f4e487b7100000000000000000000000000000000000000000000000000000000600052602260045260246000fd5b600060028204905060018216806200017857607f821691505b6020821081036200018e576200018d62000130565b5b50919050565b60008190508160005260206000209050919050565b60006020601f8301049050919050565b600082821b905092915050565b600060088302620001f87fffffffffffffffffffffffffffffffffffffffffffffffffffffffffffffffff82620001b9565b620002048683620001b9565b95508019841693508086168417925050509392505050565b6000819050919050565b6000819050919050565b6000620002516200024b62000245846200021c565b62000226565b6200021c565b9050919050565b6000819050919050565b6200026d8362000230565b620002856200027c8262000258565b848454620001c6565b825550505050565b600090565b6200029c6200028d565b620002a981848462000262565b505050565b5b81811015620002d157620002c560008262000292565b600181019050620002af565b5050565b601f8211156200032057620002ea8162000194565b620002f584620001a9565b8101602085101562000305578190505b6200031d6200031485620001a9565b830182620002ae565b50505b505050565b600082821c905092915050565b6000620003456000198460080262000325565b1980831691505092915050565b600062000360838362000332565b9150826002028217905092915050565b6200037b82620000f6565b67ffffffffffffffff81111562000397576200039662000101565b5b620003a382546200015f565b620003b0828285620002d5565b600060209050601f831160018114620003e85760008415620003d3578287015190505b620003df858262000352565b8655506200044f565b601f198416620003f88662000194565b60005b828110156200042257848901518255600182019150602085019450602081019050620003fb565b868310156200044257848901516200043e601f89168262000332565b8355505b6001600288020188555050505b505050505050565b61471c80620004676000396000f3fe6080604052600436106101355760003560e01c80636352211e116100ab578063ae677aa31161006f578063ae677aa31461042d578063b88d4fde14610449578063be9af53614610472578063c87b56dd1461048e578063e219fc75146104cb578063e985e9c5146104e757610135565b80636352211e1461032f57806370a082311461036c57806372b3b620146103a957806395d89b41146103d9578063a22cb4651461040457610135565b806312e85585116100fd57806312e8558514610233578063202e37401461025e57806323b872dd14610289578063260070d8146102b257806342842e0e146102db57806345f8fa801461030457610135565b806301ffc9a71461013a57806306fdde0314610177578063081812fc146101a2578063095ea7b3146101df5780630f08efe014610208575b600080fd5b34801561014657600080fd5b50610161600480360381019061015c9190612ebc565b610524565b60405161016e9190612f04565b60405180910390f35b34801561018357600080fd5b5061018c610606565b6040516101999190612faf565b60405180910390f35b3480156101ae57600080fd5b506101c960048036038101906101c49190613007565b610698565b6040516101d69190613075565b60405180910390f35b3480156101eb57600080fd5b50610206600480360381019061020191906130bc565b6106de565b005b34801561021457600080fd5b5061021d6107f5565b60405161022a9190613252565b60405180910390f35b34801561023f57600080fd5b50610248610a5d565b6040516102559190613283565b60405180910390f35b34801561026a57600080fd5b50610273610a67565b6040516102809190613252565b60405180910390f35b34801561029557600080fd5b506102b060048036038101906102ab919061329e565b610d53565b005b3480156102be57600080fd5b506102d960048036038101906102d49190613007565b610db3565b005b3480156102e757600080fd5b5061030260048036038101906102fd919061329e565b61101e565b005b34801561031057600080fd5b5061031961103e565b6040516103269190613252565b60405180910390f35b34801561033b57600080fd5b5061035660048036038101906103519190613007565b61132a565b6040516103639190613075565b60405180910390f35b34801561037857600080fd5b50610393600480360381019061038e91906132f1565b6113b0565b6040516103a09190613283565b60405180910390f35b6103c360048036038101906103be9190613453565b611467565b6040516103d09190613283565b60405180910390f35b3480156103e557600080fd5b506103ee6114a9565b6040516103fb9190612faf565b60405180910390f35b34801561041057600080fd5b5061042b600480360381019061042691906134db565b61153b565b005b61044760048036038101906104429190613007565b611551565b005b34801561045557600080fd5b50610470600480360381019061046b91906135bc565b6115eb565b005b61048c60048036038101906104879190613007565b61164d565b005b34801561049a57600080fd5b506104b560048036038101906104b09190613007565b61188b565b6040516104c29190612faf565b60405180910390f35b6104e560048036038101906104e0919061363f565b61199d565b005b3480156104f357600080fd5b5061050e6004803603810190610509919061367f565b611b92565b60405161051b9190612f04565b60405180910390f35b60007f80ac58cd000000000000000000000000000000000000000000000000000000007bffffffffffffffffffffffffffffffffffffffffffffffffffffffff1916827bffffffffffffffffffffffffffffffffffffffffffffffffffffffff191614806105ef57507f5b5e139f000000000000000000000000000000000000000000000000000000007bffffffffffffffffffffffffffffffffffffffffffffffffffffffff1916827bffffffffffffffffffffffffffffffffffffffffffffffffffffffff1916145b806105ff57506105fe82611c26565b5b9050919050565b606060008054610615906136ee565b80601f0160208091040260200160405190810160405280929190818152602001828054610641906136ee565b801561068e5780601f106106635761010080835404028352916020019161068e565b820191906000526020600020905b81548152906001019060200180831161067157829003601f168201915b5050505050905090565b60006106a382611c90565b6004600083815260200190815260200160002060009054906101000a900473ffffffffffffffffffffffffffffffffffffffff169050919050565b60006106e98261132a565b90508073ffffffffffffffffffffffffffffffffffffffff168373ffffffffffffffffffffffffffffffffffffffff1603610759576040517f08c379a000000000000000000000000000000000000000000000000000000000815260040161075090613791565b60405180910390fd5b8073ffffffffffffffffffffffffffffffffffffffff16610778611cdb565b73ffffffffffffffffffffffffffffffffffffffff1614806107a757506107a6816107a1611cdb565b611b92565b5b6107e6576040517f08c379a00000000000000000000000000000000000000000000000000000000081526004016107dd90613823565b60405180910390fd5b6107f08383611ce3565b505050565b606060006108036007611d9c565b905060006108116008611d9c565b61081b6007611d9c565b6108259190613872565b90506000808267ffffffffffffffff81111561084457610843613328565b5b60405190808252806020026020018201604052801561087d57816020015b61086a612df3565b8152602001906001900390816108625790505b50905060005b84811015610a52573073ffffffffffffffffffffffffffffffffffffffff16600b60006001846108b391906138a6565b815260200190815260200160002060020160009054906101000a900473ffffffffffffffffffffffffffffffffffffffff1673ffffffffffffffffffffffffffffffffffffffff1603610a3f57600060018261090f91906138a6565b90506000600b60008381526020019081526020016000209050806040518060a0016040529081600082015481526020016001820160009054906101000a900473ffffffffffffffffffffffffffffffffffffffff1673ffffffffffffffffffffffffffffffffffffffff1673ffffffffffffffffffffffffffffffffffffffff1681526020016002820160009054906101000a900473ffffffffffffffffffffffffffffffffffffffff1673ffffffffffffffffffffffffffffffffffffffff1673ffffffffffffffffffffffffffffffffffffffff168152602001600382015481526020016004820160009054906101000a900460ff161515151581525050848681518110610a2257610a216138da565b5b6020026020010181905250600185610a3a91906138a6565b945050505b8080610a4a90613909565b915050610883565b508094505050505090565b6000600954905090565b60606000610a756007611d9c565b905060008060005b83811015610b1d573373ffffffffffffffffffffffffffffffffffffffff16600b6000600184610aad91906138a6565b815260200190815260200160002060020160009054906101000a900473ffffffffffffffffffffffffffffffffffffffff1673ffffffffffffffffffffffffffffffffffffffff1603610b0a57600183610b0791906138a6565b92505b8080610b1590613909565b915050610a7d565b5060008267ffffffffffffffff811115610b3a57610b39613328565b5b604051908082528060200260200182016040528015610b7357816020015b610b60612df3565b815260200190600190039081610b585790505b50905060005b84811015610d48573373ffffffffffffffffffffffffffffffffffffffff16600b6000600184610ba991906138a6565b815260200190815260200160002060020160009054906101000a900473ffffffffffffffffffffffffffffffffffffffff1673ffffffffffffffffffffffffffffffffffffffff1603610d35576000600182610c0591906138a6565b90506000600b60008381526020019081526020016000209050806040518060a0016040529081600082015481526020016001820160009054906101000a900473ffffffffffffffffffffffffffffffffffffffff1673ffffffffffffffffffffffffffffffffffffffff1673ffffffffffffffffffffffffffffffffffffffff1681526020016002820160009054906101000a900473ffffffffffffffffffffffffffffffffffffffff1673ffffffffffffffffffffffffffffffffffffffff1673ffffffffffffffffffffffffffffffffffffffff168152602001600382015481526020016004820160009054906101000a900460ff161515151581525050848681518110610d1857610d176138da565b5b6020026020010181905250600185610d3091906138a6565b945050505b8080610d4090613909565b915050610b79565b508094505050505090565b610d64610d5e611cdb565b82611daa565b610da3576040517f08c379a0000000000000000000000000000000000000000000000000000000008152600401610d9a906139c3565b60405180910390fd5b610dae838383611e3f565b505050565b3373ffffffffffffffffffffffffffffffffffffffff16600b600083815260200190815260200160002060010160009054906101000a900473ffffffffffffffffffffffffffffffffffffffff1673ffffffffffffffffffffffffffffffffffffffff1614610e57576040517f08c379a0000000000000000000000000000000000000000000000000000000008152600401610e4e90613a55565b60405180910390fd5b60001515600b600083815260200190815260200160002060040160009054906101000a900460ff16151514610ec1576040517f08c379a0000000000000000000000000000000000000000000000000000000008152600401610eb890613ae7565b60405180910390fd5b33600b600083815260200190815260200160002060020160006101000a81548173ffffffffffffffffffffffffffffffffffffffff021916908373ffffffffffffffffffffffffffffffffffffffff1602179055506000600b600083815260200190815260200160002060010160006101000a81548173ffffffffffffffffffffffffffffffffffffffff021916908373ffffffffffffffffffffffffffffffffffffffff1602179055506001600b600083815260200190815260200160002060040160006101000a81548160ff021916908315150217905550610fa56008612138565b600a60009054906101000a900473ffffffffffffffffffffffffffffffffffffffff1673ffffffffffffffffffffffffffffffffffffffff166108fc6009549081150290604051600060405180830381858888f1935050505015801561100f573d6000803e3d6000fd5b5061101b303383611e3f565b50565b611039838383604051806020016040528060008152506115eb565b505050565b6060600061104c6007611d9c565b905060008060005b838110156110f4573373ffffffffffffffffffffffffffffffffffffffff16600b600060018461108491906138a6565b815260200190815260200160002060010160009054906101000a900473ffffffffffffffffffffffffffffffffffffffff1673ffffffffffffffffffffffffffffffffffffffff16036110e1576001836110de91906138a6565b92505b80806110ec90613909565b915050611054565b5060008267ffffffffffffffff81111561111157611110613328565b5b60405190808252806020026020018201604052801561114a57816020015b611137612df3565b81526020019060019003908161112f5790505b50905060005b8481101561131f573373ffffffffffffffffffffffffffffffffffffffff16600b600060018461118091906138a6565b815260200190815260200160002060010160009054906101000a900473ffffffffffffffffffffffffffffffffffffffff1673ffffffffffffffffffffffffffffffffffffffff160361130c5760006001826111dc91906138a6565b90506000600b60008381526020019081526020016000209050806040518060a0016040529081600082015481526020016001820160009054906101000a900473ffffffffffffffffffffffffffffffffffffffff1673ffffffffffffffffffffffffffffffffffffffff1673ffffffffffffffffffffffffffffffffffffffff1681526020016002820160009054906101000a900473ffffffffffffffffffffffffffffffffffffffff1673ffffffffffffffffffffffffffffffffffffffff1673ffffffffffffffffffffffffffffffffffffffff168152602001600382015481526020016004820160009054906101000a900460ff1615151515815250508486815181106112ef576112ee6138da565b5b602002602001018190525060018561130791906138a6565b945050505b808061131790613909565b915050611150565b508094505050505090565b6000806113368361214e565b9050600073ffffffffffffffffffffffffffffffffffffffff168173ffffffffffffffffffffffffffffffffffffffff16036113a7576040517f08c379a000000000000000000000000000000000000000000000000000000000815260040161139e90613b53565b60405180910390fd5b80915050919050565b60008073ffffffffffffffffffffffffffffffffffffffff168273ffffffffffffffffffffffffffffffffffffffff1603611420576040517f08c379a000000000000000000000000000000000000000000000000000000000815260040161141790613be5565b60405180910390fd5b600360008373ffffffffffffffffffffffffffffffffffffffff1673ffffffffffffffffffffffffffffffffffffffff168152602001908152602001600020549050919050565b60006114736007612138565b600061147f6007611d9c565b905061148b338261218b565b61149581856123a8565b61149f8184612415565b8091505092915050565b6060600180546114b8906136ee565b80601f01602080910402602001604051908101604052809291908181526020018280546114e4906136ee565b80156115315780601f1061150657610100808354040283529160200191611531565b820191906000526020600020905b81548152906001019060200180831161151457829003601f168201915b5050505050905090565b61154d611546611cdb565b8383612618565b5050565b3373ffffffffffffffffffffffffffffffffffffffff16600a60009054906101000a900473ffffffffffffffffffffffffffffffffffffffff1673ffffffffffffffffffffffffffffffffffffffff16146115e1576040517f08c379a00000000000000000000000000000000000000000000000000000000081526004016115d890613c77565b60405180910390fd5b8060098190555050565b6115fc6115f6611cdb565b83611daa565b61163b576040517f08c379a0000000000000000000000000000000000000000000000000000000008152600401611632906139c3565b60405180910390fd5b61164784848484612784565b50505050565b6000600b60008381526020019081526020016000206003015490506000600b600084815260200190815260200160002060010160009054906101000a900473ffffffffffffffffffffffffffffffffffffffff1690508134146116e5576040517f08c379a00000000000000000000000000000000000000000000000000000000081526004016116dc90613d09565b60405180910390fd5b33600b600085815260200190815260200160002060020160006101000a81548173ffffffffffffffffffffffffffffffffffffffff021916908373ffffffffffffffffffffffffffffffffffffffff1602179055506001600b600085815260200190815260200160002060040160006101000a81548160ff0219169083151502179055506000600b600085815260200190815260200160002060010160006101000a81548173ffffffffffffffffffffffffffffffffffffffff021916908373ffffffffffffffffffffffffffffffffffffffff1602179055506117c96008612138565b6117d4303385611e3f565b600a60009054906101000a900473ffffffffffffffffffffffffffffffffffffffff1673ffffffffffffffffffffffffffffffffffffffff166108fc6009549081150290604051600060405180830381858888f1935050505015801561183e573d6000803e3d6000fd5b508073ffffffffffffffffffffffffffffffffffffffff166108fc349081150290604051600060405180830381858888f19350505050158015611885573d6000803e3d6000fd5b50505050565b606061189682611c90565b60006006600084815260200190815260200160002080546118b6906136ee565b80601f01602080910402602001604051908101604052809291908181526020018280546118e2906136ee565b801561192f5780601f106119045761010080835404028352916020019161192f565b820191906000526020600020905b81548152906001019060200180831161191257829003601f168201915b5050505050905060006119406127e0565b90506000815103611955578192505050611998565b60008251111561198a578082604051602001611972929190613d65565b60405160208183030381529060405292505050611998565b611993846127f7565b925050505b919050565b3373ffffffffffffffffffffffffffffffffffffffff16600b600084815260200190815260200160002060020160009054906101000a900473ffffffffffffffffffffffffffffffffffffffff1673ffffffffffffffffffffffffffffffffffffffff1614611a41576040517f08c379a0000000000000000000000000000000000000000000000000000000008152600401611a3890613dfb565b60405180910390fd5b6009543414611a85576040517f08c379a0000000000000000000000000000000000000000000000000000000008152600401611a7c90613e8d565b60405180910390fd5b6000600b600084815260200190815260200160002060040160006101000a81548160ff02191690831515021790555080600b60008481526020019081526020016000206003018190555033600b600084815260200190815260200160002060010160006101000a81548173ffffffffffffffffffffffffffffffffffffffff021916908373ffffffffffffffffffffffffffffffffffffffff16021790555030600b600084815260200190815260200160002060020160006101000a81548173ffffffffffffffffffffffffffffffffffffffff021916908373ffffffffffffffffffffffffffffffffffffffff160217905550611b83600861285f565b611b8e333084611e3f565b5050565b6000600560008473ffffffffffffffffffffffffffffffffffffffff1673ffffffffffffffffffffffffffffffffffffffff16815260200190815260200160002060008373ffffffffffffffffffffffffffffffffffffffff1673ffffffffffffffffffffffffffffffffffffffff16815260200190815260200160002060009054906101000a900460ff16905092915050565b60007f01ffc9a7000000000000000000000000000000000000000000000000000000007bffffffffffffffffffffffffffffffffffffffffffffffffffffffff1916827bffffffffffffffffffffffffffffffffffffffffffffffffffffffff1916149050919050565b611c99816128bb565b611cd8576040517f08c379a0000000000000000000000000000000000000000000000000000000008152600401611ccf90613b53565b60405180910390fd5b50565b600033905090565b816004600083815260200190815260200160002060006101000a81548173ffffffffffffffffffffffffffffffffffffffff021916908373ffffffffffffffffffffffffffffffffffffffff160217905550808273ffffffffffffffffffffffffffffffffffffffff16611d568361132a565b73ffffffffffffffffffffffffffffffffffffffff167f8c5be1e5ebec7d5bd14f71427d1e84f3dd0314c0f7b2291e5b200ac8c7c3b92560405160405180910390a45050565b600081600001549050919050565b600080611db68361132a565b90508073ffffffffffffffffffffffffffffffffffffffff168473ffffffffffffffffffffffffffffffffffffffff161480611df85750611df78185611b92565b5b80611e3657508373ffffffffffffffffffffffffffffffffffffffff16611e1e84610698565b73ffffffffffffffffffffffffffffffffffffffff16145b91505092915050565b8273ffffffffffffffffffffffffffffffffffffffff16611e5f8261132a565b73ffffffffffffffffffffffffffffffffffffffff1614611eb5576040517f08c379a0000000000000000000000000000000000000000000000000000000008152600401611eac90613f1f565b60405180910390fd5b600073ffffffffffffffffffffffffffffffffffffffff168273ffffffffffffffffffffffffffffffffffffffff1603611f24576040517f08c379a0000000000000000000000000000000000000000000000000000000008152600401611f1b90613fb1565b60405180910390fd5b611f3183838360016128fc565b8273ffffffffffffffffffffffffffffffffffffffff16611f518261132a565b73ffffffffffffffffffffffffffffffffffffffff1614611fa7576040517f08c379a0000000000000000000000000000000000000000000000000000000008152600401611f9e90613f1f565b60405180910390fd5b6004600082815260200190815260200160002060006101000a81549073ffffffffffffffffffffffffffffffffffffffff02191690556001600360008573ffffffffffffffffffffffffffffffffffffffff1673ffffffffffffffffffffffffffffffffffffffff168152602001908152602001600020600082825403925050819055506001600360008473ffffffffffffffffffffffffffffffffffffffff1673ffffffffffffffffffffffffffffffffffffffff16815260200190815260200160002060008282540192505081905550816002600083815260200190815260200160002060006101000a81548173ffffffffffffffffffffffffffffffffffffffff021916908373ffffffffffffffffffffffffffffffffffffffff160217905550808273ffffffffffffffffffffffffffffffffffffffff168473ffffffffffffffffffffffffffffffffffffffff167fddf252ad1be2c89b69c2b068fc378daa952ba7f163c4a11628f55a4df523b3ef60405160405180910390a46121338383836001612a22565b505050565b6001816000016000828254019250508190555050565b60006002600083815260200190815260200160002060009054906101000a900473ffffffffffffffffffffffffffffffffffffffff169050919050565b600073ffffffffffffffffffffffffffffffffffffffff168273ffffffffffffffffffffffffffffffffffffffff16036121fa576040517f08c379a00000000000000000000000000000000000000000000000000000000081526004016121f19061401d565b60405180910390fd5b612203816128bb565b15612243576040517f08c379a000000000000000000000000000000000000000000000000000000000815260040161223a90614089565b60405180910390fd5b6122516000838360016128fc565b61225a816128bb565b1561229a576040517f08c379a000000000000000000000000000000000000000000000000000000000815260040161229190614089565b60405180910390fd5b6001600360008473ffffffffffffffffffffffffffffffffffffffff1673ffffffffffffffffffffffffffffffffffffffff16815260200190815260200160002060008282540192505081905550816002600083815260200190815260200160002060006101000a81548173ffffffffffffffffffffffffffffffffffffffff021916908373ffffffffffffffffffffffffffffffffffffffff160217905550808273ffffffffffffffffffffffffffffffffffffffff16600073ffffffffffffffffffffffffffffffffffffffff167fddf252ad1be2c89b69c2b068fc378daa952ba7f163c4a11628f55a4df523b3ef60405160405180910390a46123a4600083836001612a22565b5050565b6123b1826128bb565b6123f0576040517f08c379a00000000000000000000000000000000000000000000000000000000081526004016123e79061411b565b60405180910390fd5b8060066000848152602001908152602001600020908161241091906142e7565b505050565b60008111612458576040517f08c379a000000000000000000000000000000000000000000000000000000000815260040161244f90614405565b60405180910390fd5b600954341461249c576040517f08c379a000000000000000000000000000000000000000000000000000000000815260040161249390613e8d565b60405180910390fd5b6040518060a001604052808381526020013373ffffffffffffffffffffffffffffffffffffffff1681526020013073ffffffffffffffffffffffffffffffffffffffff16815260200182815260200160001515815250600b60008481526020019081526020016000206000820151816000015560208201518160010160006101000a81548173ffffffffffffffffffffffffffffffffffffffff021916908373ffffffffffffffffffffffffffffffffffffffff16021790555060408201518160020160006101000a81548173ffffffffffffffffffffffffffffffffffffffff021916908373ffffffffffffffffffffffffffffffffffffffff1602179055506060820151816003015560808201518160040160006101000a81548160ff0219169083151502179055509050506125d5333084611e3f565b817fb640004f1d14576d0c209e240cad0410e0d8c0c33a09375861fbadae2588a98d333084600060405161260c9493929190614425565b60405180910390a25050565b8173ffffffffffffffffffffffffffffffffffffffff168373ffffffffffffffffffffffffffffffffffffffff1603612686576040517f08c379a000000000000000000000000000000000000000000000000000000000815260040161267d906144b6565b60405180910390fd5b80600560008573ffffffffffffffffffffffffffffffffffffffff1673ffffffffffffffffffffffffffffffffffffffff16815260200190815260200160002060008473ffffffffffffffffffffffffffffffffffffffff1673ffffffffffffffffffffffffffffffffffffffff16815260200190815260200160002060006101000a81548160ff0219169083151502179055508173ffffffffffffffffffffffffffffffffffffffff168373ffffffffffffffffffffffffffffffffffffffff167f17307eab39ab6107e8899845ad3d59bd9653f200f220920489ca2b5937696c31836040516127779190612f04565b60405180910390a3505050565b61278f848484611e3f565b61279b84848484612a28565b6127da576040517f08c379a00000000000000000000000000000000000000000000000000000000081526004016127d190614548565b60405180910390fd5b50505050565b606060405180602001604052806000815250905090565b606061280282611c90565b600061280c6127e0565b9050600081511161282c5760405180602001604052806000815250612857565b8061283684612baf565b604051602001612847929190613d65565b6040516020818303038152906040525b915050919050565b600081600001549050600081116128ab576040517f08c379a00000000000000000000000000000000000000000000000000000000081526004016128a2906145b4565b60405180910390fd5b6001810382600001819055505050565b60008073ffffffffffffffffffffffffffffffffffffffff166128dd8361214e565b73ffffffffffffffffffffffffffffffffffffffff1614159050919050565b6001811115612a1c57600073ffffffffffffffffffffffffffffffffffffffff168473ffffffffffffffffffffffffffffffffffffffff16146129905780600360008673ffffffffffffffffffffffffffffffffffffffff1673ffffffffffffffffffffffffffffffffffffffff16815260200190815260200160002060008282546129889190613872565b925050819055505b600073ffffffffffffffffffffffffffffffffffffffff168373ffffffffffffffffffffffffffffffffffffffff1614612a1b5780600360008573ffffffffffffffffffffffffffffffffffffffff1673ffffffffffffffffffffffffffffffffffffffff1681526020019081526020016000206000828254612a1391906138a6565b925050819055505b5b50505050565b50505050565b6000612a498473ffffffffffffffffffffffffffffffffffffffff16612c7d565b15612ba2578373ffffffffffffffffffffffffffffffffffffffff1663150b7a02612a72611cdb565b8786866040518563ffffffff1660e01b8152600401612a949493929190614629565b6020604051808303816000875af1925050508015612ad057506040513d601f19601f82011682018060405250810190612acd919061468a565b60015b612b52573d8060008114612b00576040519150601f19603f3d011682016040523d82523d6000602084013e612b05565b606091505b506000815103612b4a576040517f08c379a0000000000000000000000000000000000000000000000000000000008152600401612b4190614548565b60405180910390fd5b805181602001fd5b63150b7a0260e01b7bffffffffffffffffffffffffffffffffffffffffffffffffffffffff1916817bffffffffffffffffffffffffffffffffffffffffffffffffffffffff191614915050612ba7565b600190505b949350505050565b606060006001612bbe84612ca0565b01905060008167ffffffffffffffff811115612bdd57612bdc613328565b5b6040519080825280601f01601f191660200182016040528015612c0f5781602001600182028036833780820191505090505b509050600082602001820190505b600115612c72578080600190039150507f3031323334353637383961626364656600000000000000000000000000000000600a86061a8153600a8581612c6657612c656146b7565b5b04945060008503612c1d575b819350505050919050565b6000808273ffffffffffffffffffffffffffffffffffffffff163b119050919050565b600080600090507a184f03e93ff9f4daa797ed6e38ed64bf6a1f0100000000000000008310612cfe577a184f03e93ff9f4daa797ed6e38ed64bf6a1f0100000000000000008381612cf457612cf36146b7565b5b0492506040810190505b6d04ee2d6d415b85acef81000000008310612d3b576d04ee2d6d415b85acef81000000008381612d3157612d306146b7565b5b0492506020810190505b662386f26fc100008310612d6a57662386f26fc100008381612d6057612d5f6146b7565b5b0492506010810190505b6305f5e1008310612d93576305f5e1008381612d8957612d886146b7565b5b0492506008810190505b6127108310612db8576127108381612dae57612dad6146b7565b5b0492506004810190505b60648310612ddb5760648381612dd157612dd06146b7565b5b0492506002810190505b600a8310612dea576001810190505b80915050919050565b6040518060a0016040528060008152602001600073ffffffffffffffffffffffffffffffffffffffff168152602001600073ffffffffffffffffffffffffffffffffffffffff168152602001600081526020016000151581525090565b6000604051905090565b600080fd5b600080fd5b60007fffffffff0000000000000000000000000000000000000000000000000000000082169050919050565b612e9981612e64565b8114612ea457600080fd5b50565b600081359050612eb681612e90565b92915050565b600060208284031215612ed257612ed1612e5a565b5b6000612ee084828501612ea7565b91505092915050565b60008115159050919050565b612efe81612ee9565b82525050565b6000602082019050612f196000830184612ef5565b92915050565b600081519050919050565b600082825260208201905092915050565b60005b83811015612f59578082015181840152602081019050612f3e565b60008484015250505050565b6000601f19601f8301169050919050565b6000612f8182612f1f565b612f8b8185612f2a565b9350612f9b818560208601612f3b565b612fa481612f65565b840191505092915050565b60006020820190508181036000830152612fc98184612f76565b905092915050565b6000819050919050565b612fe481612fd1565b8114612fef57600080fd5b50565b60008135905061300181612fdb565b92915050565b60006020828403121561301d5761301c612e5a565b5b600061302b84828501612ff2565b91505092915050565b600073ffffffffffffffffffffffffffffffffffffffff82169050919050565b600061305f82613034565b9050919050565b61306f81613054565b82525050565b600060208201905061308a6000830184613066565b92915050565b61309981613054565b81146130a457600080fd5b50565b6000813590506130b681613090565b92915050565b600080604083850312156130d3576130d2612e5a565b5b60006130e1858286016130a7565b92505060206130f285828601612ff2565b9150509250929050565b600081519050919050565b600082825260208201905092915050565b6000819050602082019050919050565b61313181612fd1565b82525050565b600061314282613034565b9050919050565b61315281613137565b82525050565b61316181612ee9565b82525050565b60a08201600082015161317d6000850182613128565b5060208201516131906020850182613149565b5060408201516131a36040850182613149565b5060608201516131b66060850182613128565b5060808201516131c96080850182613158565b50505050565b60006131db8383613167565b60a08301905092915050565b6000602082019050919050565b60006131ff826130fc565b6132098185613107565b935061321483613118565b8060005b8381101561324557815161322c88826131cf565b9750613237836131e7565b925050600181019050613218565b5085935050505092915050565b6000602082019050818103600083015261326c81846131f4565b905092915050565b61327d81612fd1565b82525050565b60006020820190506132986000830184613274565b92915050565b6000806000606084860312156132b7576132b6612e5a565b5b60006132c5868287016130a7565b93505060206132d6868287016130a7565b92505060406132e786828701612ff2565b9150509250925092565b60006020828403121561330757613306612e5a565b5b6000613315848285016130a7565b91505092915050565b600080fd5b600080fd5b7f4e487b7100000000000000000000000000000000000000000000000000000000600052604160045260246000fd5b61336082612f65565b810181811067ffffffffffffffff8211171561337f5761337e613328565b5b80604052505050565b6000613392612e50565b905061339e8282613357565b919050565b600067ffffffffffffffff8211156133be576133bd613328565b5b6133c782612f65565b9050602081019050919050565b82818337600083830152505050565b60006133f66133f1846133a3565b613388565b90508281526020810184848401111561341257613411613323565b5b61341d8482856133d4565b509392505050565b600082601f83011261343a5761343961331e565b5b813561344a8482602086016133e3565b91505092915050565b6000806040838503121561346a57613469612e5a565b5b600083013567ffffffffffffffff81111561348857613487612e5f565b5b61349485828601613425565b92505060206134a585828601612ff2565b9150509250929050565b6134b881612ee9565b81146134c357600080fd5b50565b6000813590506134d5816134af565b92915050565b600080604083850312156134f2576134f1612e5a565b5b6000613500858286016130a7565b9250506020613511858286016134c6565b9150509250929050565b600067ffffffffffffffff82111561353657613535613328565b5b61353f82612f65565b9050602081019050919050565b600061355f61355a8461351b565b613388565b90508281526020810184848401111561357b5761357a613323565b5b6135868482856133d4565b509392505050565b600082601f8301126135a3576135a261331e565b5b81356135b384826020860161354c565b91505092915050565b600080600080608085870312156135d6576135d5612e5a565b5b60006135e4878288016130a7565b94505060206135f5878288016130a7565b935050604061360687828801612ff2565b925050606085013567ffffffffffffffff81111561362757613626612e5f565b5b6136338782880161358e565b91505092959194509250565b6000806040838503121561365657613655612e5a565b5b600061366485828601612ff2565b925050602061367585828601612ff2565b9150509250929050565b6000806040838503121561369657613695612e5a565b5b60006136a4858286016130a7565b92505060206136b5858286016130a7565b9150509250929050565b7f4e487b7100000000000000000000000000000000000000000000000000000000600052602260045260246000fd5b6000600282049050600182168061370657607f821691505b602082108103613719576137186136bf565b5b50919050565b7f4552433732313a20617070726f76616c20746f2063757272656e74206f776e6560008201527f7200000000000000000000000000000000000000000000000000000000000000602082015250565b600061377b602183612f2a565b91506137868261371f565b604082019050919050565b600060208201905081810360008301526137aa8161376e565b9050919050565b7f4552433732313a20617070726f76652063616c6c6572206973206e6f7420746f60008201527f6b656e206f776e6572206f7220617070726f76656420666f7220616c6c000000602082015250565b600061380d603d83612f2a565b9150613818826137b1565b604082019050919050565b6000602082019050818103600083015261383c81613800565b9050919050565b7f4e487b7100000000000000000000000000000000000000000000000000000000600052601160045260246000fd5b600061387d82612fd1565b915061388883612fd1565b92508282039050818111156138a05761389f613843565b5b92915050565b60006138b182612fd1565b91506138bc83612fd1565b92508282019050808211156138d4576138d3613843565b5b92915050565b7f4e487b7100000000000000000000000000000000000000000000000000000000600052603260045260246000fd5b600061391482612fd1565b91507fffffffffffffffffffffffffffffffffffffffffffffffffffffffffffffffff820361394657613945613843565b5b600182019050919050565b7f4552433732313a2063616c6c6572206973206e6f7420746f6b656e206f776e6560008201527f72206f7220617070726f76656400000000000000000000000000000000000000602082015250565b60006139ad602d83612f2a565b91506139b882613951565b604082019050919050565b600060208201905081810360008301526139dc816139a0565b9050919050565b7f4f6e6c79206974656d2073656c6c65722063616e20706572666f726d2074686960008201527f73206f7065726174696f6e000000000000000000000000000000000000000000602082015250565b6000613a3f602b83612f2a565b9150613a4a826139e3565b604082019050919050565b60006020820190508181036000830152613a6e81613a32565b9050919050565b7f4f6e6c792063616e63656c206974656d7320776869636820617265206e6f742060008201527f736f6c6420796574000000000000000000000000000000000000000000000000602082015250565b6000613ad1602883612f2a565b9150613adc82613a75565b604082019050919050565b60006020820190508181036000830152613b0081613ac4565b9050919050565b7f4552433732313a20696e76616c696420746f6b656e2049440000000000000000600082015250565b6000613b3d601883612f2a565b9150613b4882613b07565b602082019050919050565b60006020820190508181036000830152613b6c81613b30565b9050919050565b7f4552433732313a2061646472657373207a65726f206973206e6f74206120766160008201527f6c6964206f776e65720000000000000000000000000000000000000000000000602082015250565b6000613bcf602983612f2a565b9150613bda82613b73565b604082019050919050565b60006020820190508181036000830152613bfe81613bc2565b9050919050565b7f4f6e6c79206d61726b657420706c616365206f776e65722063616e207570646160008201527f7465206c697374696e6720707269636500000000000000000000000000000000602082015250565b6000613c61603083612f2a565b9150613c6c82613c05565b604082019050919050565b60006020820190508181036000830152613c9081613c54565b9050919050565b7f506c65617365207375626d6974207468652061736b696e67207072696365206960008201527f6e206f7264657220746f20636f6d706c65746520746865207075726368617365602082015250565b6000613cf3604083612f2a565b9150613cfe82613c97565b604082019050919050565b60006020820190508181036000830152613d2281613ce6565b9050919050565b600081905092915050565b6000613d3f82612f1f565b613d498185613d29565b9350613d59818560208601612f3b565b80840191505092915050565b6000613d718285613d34565b9150613d7d8284613d34565b91508190509392505050565b7f4f6e6c79206974656d206f776e65722063616e20706572666f726d207468697360008201527f206f7065726174696f6e00000000000000000000000000000000000000000000602082015250565b6000613de5602a83612f2a565b9150613df082613d89565b604082019050919050565b60006020820190508181036000830152613e1481613dd8565b9050919050565b7f5072696365206d75737420626520657175616c20746f206c697374696e67207060008201527f7269636500000000000000000000000000000000000000000000000000000000602082015250565b6000613e77602483612f2a565b9150613e8282613e1b565b604082019050919050565b60006020820190508181036000830152613ea681613e6a565b9050919050565b7f4552433732313a207472616e736665722066726f6d20696e636f72726563742060008201527f6f776e6572000000000000000000000000000000000000000000000000000000602082015250565b6000613f09602583612f2a565b9150613f1482613ead565b604082019050919050565b60006020820190508181036000830152613f3881613efc565b9050919050565b7f4552433732313a207472616e7366657220746f20746865207a65726f2061646460008201527f7265737300000000000000000000000000000000000000000000000000000000602082015250565b6000613f9b602483612f2a565b9150613fa682613f3f565b604082019050919050565b60006020820190508181036000830152613fca81613f8e565b9050919050565b7f4552433732313a206d696e7420746f20746865207a65726f2061646472657373600082015250565b6000614007602083612f2a565b915061401282613fd1565b602082019050919050565b6000602082019050818103600083015261403681613ffa565b9050919050565b7f4552433732313a20746f6b656e20616c7265616479206d696e74656400000000600082015250565b6000614073601c83612f2a565b915061407e8261403d565b602082019050919050565b600060208201905081810360008301526140a281614066565b9050919050565b7f45524337323155524953746f726167653a2055524920736574206f66206e6f6e60008201527f6578697374656e7420746f6b656e000000000000000000000000000000000000602082015250565b6000614105602e83612f2a565b9150614110826140a9565b604082019050919050565b60006020820190508181036000830152614134816140f8565b9050919050565b60008190508160005260206000209050919050565b60006020601f8301049050919050565b600082821b905092915050565b60006008830261419d7fffffffffffffffffffffffffffffffffffffffffffffffffffffffffffffffff82614160565b6141a78683614160565b95508019841693508086168417925050509392505050565b6000819050919050565b60006141e46141df6141da84612fd1565b6141bf565b612fd1565b9050919050565b6000819050919050565b6141fe836141c9565b61421261420a826141eb565b84845461416d565b825550505050565b600090565b61422761421a565b6142328184846141f5565b505050565b5b818110156142565761424b60008261421f565b600181019050614238565b5050565b601f82111561429b5761426c8161413b565b61427584614150565b81016020851015614284578190505b61429861429085614150565b830182614237565b50505b505050565b600082821c905092915050565b60006142be600019846008026142a0565b1980831691505092915050565b60006142d783836142ad565b9150826002028217905092915050565b6142f082612f1f565b67ffffffffffffffff81111561430957614308613328565b5b61431382546136ee565b61431e82828561425a565b600060209050601f831160018114614351576000841561433f578287015190505b61434985826142cb565b8655506143b1565b601f19841661435f8661413b565b60005b8281101561438757848901518255600182019150602085019450602081019050614362565b868310156143a457848901516143a0601f8916826142ad565b8355505b6001600288020188555050505b505050505050565b7f5072696365206d7573742062652067726561746572207468616e207a65726f00600082015250565b60006143ef601f83612f2a565b91506143fa826143b9565b602082019050919050565b6000602082019050818103600083015261441e816143e2565b9050919050565b600060808201905061443a6000830187613066565b6144476020830186613066565b6144546040830185613274565b6144616060830184612ef5565b95945050505050565b7f4552433732313a20617070726f766520746f2063616c6c657200000000000000600082015250565b60006144a0601983612f2a565b91506144ab8261446a565b602082019050919050565b600060208201905081810360008301526144cf81614493565b9050919050565b7f4552433732313a207472616e7366657220746f206e6f6e20455243373231526560008201527f63656976657220696d706c656d656e7465720000000000000000000000000000602082015250565b6000614532603283612f2a565b915061453d826144d6565b604082019050919050565b6000602082019050818103600083015261456181614525565b9050919050565b7f436f756e7465723a2064656372656d656e74206f766572666c6f770000000000600082015250565b600061459e601b83612f2a565b91506145a982614568565b602082019050919050565b600060208201905081810360008301526145cd81614591565b9050919050565b600081519050919050565b600082825260208201905092915050565b60006145fb826145d4565b61460581856145df565b9350614615818560208601612f3b565b61461e81612f65565b840191505092915050565b600060808201905061463e6000830187613066565b61464b6020830186613066565b6146586040830185613274565b818103606083015261466a81846145f0565b905095945050505050565b60008151905061468481612e90565b92915050565b6000602082840312156146a05761469f612e5a565b5b60006146ae84828501614675565b91505092915050565b7f4e487b7100000000000000000000000000000000000000000000000000000000600052601260045260246000fdfea264697066735822122055879bb33debd7c8cf8d1d5fd5bce366ffec8a9a7ad66bceb5169bc9b870afea64736f6c63430008130033",
  "linkReferences": {},
  "deployedLinkReferences": {}
}